{
  "_format": "hh-sol-artifact-1",
  "contractName": "MerkleDistributor",
  "sourceName": "contracts/MerkleDistributor.sol",
  "abi": [
    {
      "inputs": [
        {
          "internalType": "bytes32",
          "name": "merkleRoot_",
          "type": "bytes32"
        }
      ],
      "stateMutability": "nonpayable",
      "type": "constructor"
    },
    {
      "inputs": [],
      "name": "AlreadyClaimed",
      "type": "error"
    },
    {
      "inputs": [],
      "name": "InvalidProof",
      "type": "error"
    },
    {
      "anonymous": false,
      "inputs": [
        {
          "indexed": false,
          "internalType": "uint256",
          "name": "index",
          "type": "uint256"
        },
        {
          "indexed": false,
          "internalType": "address",
          "name": "account",
          "type": "address"
        },
        {
          "indexed": false,
          "internalType": "address",
          "name": "_token",
          "type": "address"
        },
        {
          "indexed": false,
          "internalType": "uint256",
          "name": "amount",
          "type": "uint256"
        }
      ],
      "name": "Claimed",
      "type": "event"
    },
    {
      "anonymous": false,
      "inputs": [
        {
          "indexed": true,
          "internalType": "address",
          "name": "previousOwner",
          "type": "address"
        },
        {
          "indexed": true,
          "internalType": "address",
          "name": "newOwner",
          "type": "address"
        }
      ],
      "name": "OwnershipTransferred",
      "type": "event"
    },
    {
      "anonymous": false,
      "inputs": [
        {
          "indexed": true,
          "internalType": "address",
          "name": "from",
          "type": "address"
        },
        {
          "indexed": true,
          "internalType": "address",
          "name": "token",
          "type": "address"
        },
        {
          "indexed": false,
          "internalType": "uint256",
          "name": "amount",
          "type": "uint256"
        }
      ],
      "name": "Withdraw",
      "type": "event"
    },
    {
      "inputs": [
        {
          "internalType": "uint256[]",
          "name": "indexes",
          "type": "uint256[]"
        },
        {
          "internalType": "address[]",
          "name": "tokens",
          "type": "address[]"
        },
        {
          "internalType": "address",
          "name": "account",
          "type": "address"
        },
        {
          "internalType": "uint256[]",
          "name": "amounts",
          "type": "uint256[]"
        },
        {
          "internalType": "bytes32[][]",
          "name": "merkleProofs",
          "type": "bytes32[][]"
        }
      ],
      "name": "claim",
      "outputs": [],
      "stateMutability": "nonpayable",
      "type": "function"
    },
    {
      "inputs": [
        {
          "internalType": "uint256[]",
          "name": "indexes",
          "type": "uint256[]"
        }
      ],
      "name": "getUnclaimed",
      "outputs": [
        {
          "internalType": "uint256[]",
          "name": "unclaimedIndexes",
          "type": "uint256[]"
        }
      ],
      "stateMutability": "view",
      "type": "function"
    },
    {
      "inputs": [
        {
          "internalType": "uint256",
          "name": "index",
          "type": "uint256"
        }
      ],
      "name": "isClaimed",
      "outputs": [
        {
          "internalType": "bool",
          "name": "",
          "type": "bool"
        }
      ],
      "stateMutability": "view",
      "type": "function"
    },
    {
      "inputs": [],
      "name": "merkleRoot",
      "outputs": [
        {
          "internalType": "bytes32",
          "name": "",
          "type": "bytes32"
        }
      ],
      "stateMutability": "view",
      "type": "function"
    },
    {
      "inputs": [],
      "name": "owner",
      "outputs": [
        {
          "internalType": "address",
          "name": "",
          "type": "address"
        }
      ],
      "stateMutability": "view",
      "type": "function"
    },
    {
      "inputs": [],
      "name": "renounceOwnership",
      "outputs": [],
      "stateMutability": "nonpayable",
      "type": "function"
    },
    {
      "inputs": [
        {
          "internalType": "address",
          "name": "newOwner",
          "type": "address"
        }
      ],
      "name": "transferOwnership",
      "outputs": [],
      "stateMutability": "nonpayable",
      "type": "function"
    },
    {
      "inputs": [
        {
          "internalType": "address[]",
          "name": "tokens",
          "type": "address[]"
        },
        {
          "internalType": "uint256[]",
          "name": "amounts",
          "type": "uint256[]"
        },
        {
          "internalType": "address",
          "name": "recipient",
          "type": "address"
        }
      ],
      "name": "withdraw",
      "outputs": [],
      "stateMutability": "nonpayable",
      "type": "function"
    }
  ],
  "bytecode": "0x60a060405234801561001057600080fd5b5060405161155838038061155883398101604081905261002f91610090565b61003833610040565b6080526100a9565b600080546001600160a01b038381166001600160a01b0319831681178455604051919092169283917f8be0079c531659141344cd1fd0a4f28419497f9722a3daafe3b4186f6b6457e09190a35050565b6000602082840312156100a257600080fd5b5051919050565b60805161148e6100ca6000396000818160a701526107c5015261148e6000f3fe608060405234801561001057600080fd5b50600436106100885760003560e01c80638da5cb5b1161005b5780638da5cb5b146100f75780639e34070f1461011f578063c4ee77ce14610142578063f2fde38b1461016257600080fd5b806326f915061461008d5780632eb4a7ab146100a25780634ed869cd146100dc578063715018a6146100ef575b600080fd5b6100a061009b366004610ffb565b610175565b005b6100c97f000000000000000000000000000000000000000000000000000000000000000081565b6040519081526020015b60405180910390f35b6100a06100ea36600461107c565b6104f3565b6100a06108cb565b60005460405173ffffffffffffffffffffffffffffffffffffffff90911681526020016100d3565b61013261012d366004611156565b6108df565b60405190151581526020016100d3565b61015561015036600461116f565b6108f0565b6040516100d391906111b1565b6100a06101703660046111f5565b6109c6565b61017d610a63565b73ffffffffffffffffffffffffffffffffffffffff81166101e55760405162461bcd60e51b815260206004820152601a60248201527f6e6f6e2d7a65726f20726563697069656e74206164647265737300000000000060448201526064015b60405180910390fd5b83821461025a5760405162461bcd60e51b815260206004820152602660248201527f417272617920746f6b656e733c3e616d6f756e7473206c656e67746873206d6960448201527f736d61746368000000000000000000000000000000000000000000000000000060648201526084016101dc565b60005b848110156104eb57600086868381811061027957610279611210565b905060200201602081019061028e91906111f5565b905060008585848181106102a4576102a4611210565b602002919091013591505073ffffffffffffffffffffffffffffffffffffffff82166103385760405162461bcd60e51b815260206004820152603160248201527f4d65726b6c654469737472696275746f723a205a65726f20746f6b656e20616460448201527f6472657373206e6f7420616c6c6f77656400000000000000000000000000000060648201526084016101dc565b806000036103ae5760405162461bcd60e51b815260206004820152602a60248201527f4d65726b6c654469737472696275746f723a205a65726f20616d6f756e74206e60448201527f6f7420616c6c6f7765640000000000000000000000000000000000000000000060648201526084016101dc565b6040517f70a0823100000000000000000000000000000000000000000000000000000000815230600482015260009073ffffffffffffffffffffffffffffffffffffffff8416906370a0823190602401602060405180830381865afa15801561041b573d6000803e3d6000fd5b505050506040513d601f19601f8201168201806040525081019061043f919061123f565b90508181101561044d578091505b61046e73ffffffffffffffffffffffffffffffffffffffff84168684610aca565b8273ffffffffffffffffffffffffffffffffffffffff168573ffffffffffffffffffffffffffffffffffffffff167f9b1bfa7fa9ee420a16e124f794c35ac9f90472acc99140eb2f6447c714cad8eb846040516104cd91815260200190565b60405180910390a350505080806104e390611258565b91505061025d565b505050505050565b8786146105685760405162461bcd60e51b815260206004820152602360248201527f417272617920696e6465783c3e746f6b656e206c656e67746873206d69736d6160448201527f746368000000000000000000000000000000000000000000000000000000000060648201526084016101dc565b8783146105dd5760405162461bcd60e51b815260206004820152602760248201527f417272617920696e64657865733c3e616d6f756e7473206c656e67746873206d60448201527f69736d617463680000000000000000000000000000000000000000000000000060648201526084016101dc565b8781146106525760405162461bcd60e51b815260206004820152602c60248201527f417272617920696e64657865733c3e6d65726b6c6550726f6f6673206c656e6760448201527f746873206d69736d61746368000000000000000000000000000000000000000060648201526084016101dc565b60005b868110156108bf57600088888381811061067157610671611210565b905060200201602081019061068691906111f5565b9050600086868481811061069c5761069c611210565b90506020020135905060008c8c858181106106b9576106b9611210565b90506020020135905060008686868181106106d6576106d6611210565b90506020028101906106e891906112b7565b8080602002602001604051908101604052809392919081815260200183836020028082843760009201919091525092935061072892508491506108df9050565b1561075f576040517f646cf55800000000000000000000000000000000000000000000000000000000815260040160405180910390fd5b6040805160208082018590527fffffffffffffffffffffffffffffffffffffffff000000000000000000000000606088811b8216848601528e901b166054830152606880830187905283518084039091018152608890920190925280519101206107ea827f000000000000000000000000000000000000000000000000000000000000000083610b5c565b610820576040517f09bde33900000000000000000000000000000000000000000000000000000000815260040160405180910390fd5b61082983610b74565b61084a73ffffffffffffffffffffffffffffffffffffffff86168c86610aca565b6040805184815273ffffffffffffffffffffffffffffffffffffffff8d811660208301528716818301526060810186905290517fce3bcb6e219596cf26007ffdfaae8953bc3f76e3f36c0a79b23e28020da3222e9181900360800190a1505050505080806108b790611258565b915050610655565b50505050505050505050565b6108d3610a63565b6108dd6000610bb3565b565b60006108ea82610c28565b92915050565b60608167ffffffffffffffff81111561090b5761090b61131f565b604051908082528060200260200182016040528015610934578160200160208202803683370190505b5090506000805b838110156109be5761096485858381811061095857610958611210565b90506020020135610c28565b6109ac5784848281811061097a5761097a611210565b9050602002013583838061098d90611258565b94508151811061099f5761099f611210565b6020026020010181815250505b806109b681611258565b91505061093b565b505092915050565b6109ce610a63565b73ffffffffffffffffffffffffffffffffffffffff8116610a575760405162461bcd60e51b815260206004820152602660248201527f4f776e61626c653a206e6577206f776e657220697320746865207a65726f206160448201527f646472657373000000000000000000000000000000000000000000000000000060648201526084016101dc565b610a6081610bb3565b50565b60005473ffffffffffffffffffffffffffffffffffffffff1633146108dd5760405162461bcd60e51b815260206004820181905260248201527f4f776e61626c653a2063616c6c6572206973206e6f7420746865206f776e657260448201526064016101dc565b6040805173ffffffffffffffffffffffffffffffffffffffff8416602482015260448082018490528251808303909101815260649091019091526020810180517bffffffffffffffffffffffffffffffffffffffffffffffffffffffff167fa9059cbb00000000000000000000000000000000000000000000000000000000179052610b57908490610c69565b505050565b600082610b698584610d5b565b1490505b9392505050565b6000610b826101008361137d565b90506000610b9261010084611391565b600092835260016020819052604090932080549390911b9092179091555050565b6000805473ffffffffffffffffffffffffffffffffffffffff8381167fffffffffffffffffffffffff0000000000000000000000000000000000000000831681178455604051919092169283917f8be0079c531659141344cd1fd0a4f28419497f9722a3daafe3b4186f6b6457e09190a35050565b600080610c376101008461137d565b90506000610c4761010085611391565b60009283526001602081905260409093205492901b9182169091149392505050565b6000610ccb826040518060400160405280602081526020017f5361666545524332303a206c6f772d6c6576656c2063616c6c206661696c65648152508573ffffffffffffffffffffffffffffffffffffffff16610da89092919063ffffffff16565b805190915015610b575780806020019051810190610ce991906113a5565b610b575760405162461bcd60e51b815260206004820152602a60248201527f5361666545524332303a204552433230206f7065726174696f6e20646964206e60448201527f6f7420737563636565640000000000000000000000000000000000000000000060648201526084016101dc565b600081815b8451811015610da057610d8c82868381518110610d7f57610d7f611210565b6020026020010151610dbf565b915080610d9881611258565b915050610d60565b509392505050565b6060610db78484600085610deb565b949350505050565b6000818310610ddb576000828152602084905260409020610b6d565b5060009182526020526040902090565b606082471015610e635760405162461bcd60e51b815260206004820152602660248201527f416464726573733a20696e73756666696369656e742062616c616e636520666f60448201527f722063616c6c000000000000000000000000000000000000000000000000000060648201526084016101dc565b73ffffffffffffffffffffffffffffffffffffffff85163b610ec75760405162461bcd60e51b815260206004820152601d60248201527f416464726573733a2063616c6c20746f206e6f6e2d636f6e747261637400000060448201526064016101dc565b6000808673ffffffffffffffffffffffffffffffffffffffff168587604051610ef091906113eb565b60006040518083038185875af1925050503d8060008114610f2d576040519150601f19603f3d011682016040523d82523d6000602084013e610f32565b606091505b5091509150610f42828286610f4d565b979650505050505050565b60608315610f5c575081610b6d565b825115610f6c5782518084602001fd5b8160405162461bcd60e51b81526004016101dc9190611407565b60008083601f840112610f9857600080fd5b50813567ffffffffffffffff811115610fb057600080fd5b6020830191508360208260051b8501011115610fcb57600080fd5b9250929050565b803573ffffffffffffffffffffffffffffffffffffffff81168114610ff657600080fd5b919050565b60008060008060006060868803121561101357600080fd5b853567ffffffffffffffff8082111561102b57600080fd5b61103789838a01610f86565b9097509550602088013591508082111561105057600080fd5b5061105d88828901610f86565b9094509250611070905060408701610fd2565b90509295509295909350565b600080600080600080600080600060a08a8c03121561109a57600080fd5b893567ffffffffffffffff808211156110b257600080fd5b6110be8d838e01610f86565b909b50995060208c01359150808211156110d757600080fd5b6110e38d838e01610f86565b90995097508791506110f760408d01610fd2565b965060608c013591508082111561110d57600080fd5b6111198d838e01610f86565b909650945060808c013591508082111561113257600080fd5b5061113f8c828d01610f86565b915080935050809150509295985092959850929598565b60006020828403121561116857600080fd5b5035919050565b6000806020838503121561118257600080fd5b823567ffffffffffffffff81111561119957600080fd5b6111a585828601610f86565b90969095509350505050565b6020808252825182820181905260009190848201906040850190845b818110156111e9578351835292840192918401916001016111cd565b50909695505050505050565b60006020828403121561120757600080fd5b610b6d82610fd2565b7f4e487b7100000000000000000000000000000000000000000000000000000000600052603260045260246000fd5b60006020828403121561125157600080fd5b5051919050565b60007fffffffffffffffffffffffffffffffffffffffffffffffffffffffffffffffff82036112b0577f4e487b7100000000000000000000000000000000000000000000000000000000600052601160045260246000fd5b5060010190565b60008083357fffffffffffffffffffffffffffffffffffffffffffffffffffffffffffffffe18436030181126112ec57600080fd5b83018035915067ffffffffffffffff82111561130757600080fd5b6020019150600581901b3603821315610fcb57600080fd5b7f4e487b7100000000000000000000000000000000000000000000000000000000600052604160045260246000fd5b7f4e487b7100000000000000000000000000000000000000000000000000000000600052601260045260246000fd5b60008261138c5761138c61134e565b500490565b6000826113a0576113a061134e565b500690565b6000602082840312156113b757600080fd5b81518015158114610b6d57600080fd5b60005b838110156113e25781810151838201526020016113ca565b50506000910152565b600082516113fd8184602087016113c7565b9190910192915050565b60208152600082518060208401526114268160408501602087016113c7565b601f017fffffffffffffffffffffffffffffffffffffffffffffffffffffffffffffffe016919091016040019291505056fea264697066735822122031444c0ce242416b8a3fda6cf663512bc7c714244a6baa404a2c39082d84c43764736f6c63430008110033",
  "linkReferences": {},
  "deployedLinkReferences": {}
}