{
  "_format": "hh-sol-artifact-1",
  "contractName": "RuneToken",
  "sourceName": "contracts/runes/RuneToken.sol",
  "abi": [
    {
      "inputs": [
        {
          "internalType": "string",
          "name": "_tokenName",
          "type": "string"
        },
        {
          "internalType": "string",
          "name": "_tokenSymbol",
          "type": "string"
        },
        {
          "internalType": "uint256",
          "name": "_rune",
          "type": "uint256"
        },
        {
          "internalType": "uint8",
          "name": "_runeDivisibility",
          "type": "uint8"
        }
      ],
      "stateMutability": "nonpayable",
      "type": "constructor"
    },
    {
      "anonymous": false,
      "inputs": [
        {
          "indexed": true,
          "internalType": "address",
          "name": "owner",
          "type": "address"
        },
        {
          "indexed": true,
          "internalType": "address",
          "name": "spender",
          "type": "address"
        },
        {
          "indexed": false,
          "internalType": "uint256",
          "name": "value",
          "type": "uint256"
        }
      ],
      "name": "Approval",
      "type": "event"
    },
    {
      "anonymous": false,
      "inputs": [
        {
          "indexed": true,
          "internalType": "address",
          "name": "from",
          "type": "address"
        },
        {
          "indexed": false,
          "internalType": "uint256",
          "name": "amount",
          "type": "uint256"
        }
      ],
      "name": "Burn",
      "type": "event"
    },
    {
      "anonymous": false,
      "inputs": [
        {
          "indexed": true,
          "internalType": "address",
          "name": "to",
          "type": "address"
        },
        {
          "indexed": false,
          "internalType": "uint256",
          "name": "amount",
          "type": "uint256"
        }
      ],
      "name": "Mint",
      "type": "event"
    },
    {
      "anonymous": false,
      "inputs": [
        {
          "indexed": true,
          "internalType": "address",
          "name": "oldMinter",
          "type": "address"
        },
        {
          "indexed": true,
          "internalType": "address",
          "name": "newMinter",
          "type": "address"
        }
      ],
      "name": "MinterChanged",
      "type": "event"
    },
    {
      "anonymous": false,
      "inputs": [
        {
          "indexed": true,
          "internalType": "address",
          "name": "from",
          "type": "address"
        },
        {
          "indexed": true,
          "internalType": "address",
          "name": "to",
          "type": "address"
        },
        {
          "indexed": false,
          "internalType": "uint256",
          "name": "value",
          "type": "uint256"
        }
      ],
      "name": "Transfer",
      "type": "event"
    },
    {
      "inputs": [
        {
          "internalType": "address",
          "name": "owner",
          "type": "address"
        },
        {
          "internalType": "address",
          "name": "spender",
          "type": "address"
        }
      ],
      "name": "allowance",
      "outputs": [
        {
          "internalType": "uint256",
          "name": "",
          "type": "uint256"
        }
      ],
      "stateMutability": "view",
      "type": "function"
    },
    {
      "inputs": [
        {
          "internalType": "address",
          "name": "spender",
          "type": "address"
        },
        {
          "internalType": "uint256",
          "name": "amount",
          "type": "uint256"
        }
      ],
      "name": "approve",
      "outputs": [
        {
          "internalType": "bool",
          "name": "",
          "type": "bool"
        }
      ],
      "stateMutability": "nonpayable",
      "type": "function"
    },
    {
      "inputs": [
        {
          "internalType": "address",
          "name": "account",
          "type": "address"
        }
      ],
      "name": "balanceOf",
      "outputs": [
        {
          "internalType": "uint256",
          "name": "",
          "type": "uint256"
        }
      ],
      "stateMutability": "view",
      "type": "function"
    },
    {
      "inputs": [
        {
          "internalType": "uint256",
          "name": "amount",
          "type": "uint256"
        }
      ],
      "name": "burn",
      "outputs": [],
      "stateMutability": "nonpayable",
      "type": "function"
    },
    {
      "inputs": [
        {
          "internalType": "address",
          "name": "newMinter",
          "type": "address"
        }
      ],
      "name": "changeMinter",
      "outputs": [],
      "stateMutability": "nonpayable",
      "type": "function"
    },
    {
      "inputs": [],
      "name": "decimals",
      "outputs": [
        {
          "internalType": "uint8",
          "name": "",
          "type": "uint8"
        }
      ],
      "stateMutability": "view",
      "type": "function"
    },
    {
      "inputs": [
        {
          "internalType": "address",
          "name": "spender",
          "type": "address"
        },
        {
          "internalType": "uint256",
          "name": "subtractedValue",
          "type": "uint256"
        }
      ],
      "name": "decreaseAllowance",
      "outputs": [
        {
          "internalType": "bool",
          "name": "",
          "type": "bool"
        }
      ],
      "stateMutability": "nonpayable",
      "type": "function"
    },
    {
      "inputs": [
        {
          "internalType": "uint256",
          "name": "tokenAmount",
          "type": "uint256"
        }
      ],
      "name": "getRuneAmount",
      "outputs": [
        {
          "internalType": "uint256",
          "name": "",
          "type": "uint256"
        }
      ],
      "stateMutability": "view",
      "type": "function"
    },
    {
      "inputs": [
        {
          "internalType": "uint256",
          "name": "tokenAmount",
          "type": "uint256"
        }
      ],
      "name": "getRuneAmountAndRemainder",
      "outputs": [
        {
          "internalType": "uint256",
          "name": "",
          "type": "uint256"
        },
        {
          "internalType": "uint256",
          "name": "",
          "type": "uint256"
        }
      ],
      "stateMutability": "view",
      "type": "function"
    },
    {
      "inputs": [
        {
          "internalType": "uint256",
          "name": "runeAmount",
          "type": "uint256"
        }
      ],
      "name": "getTokenAmount",
      "outputs": [
        {
          "internalType": "uint256",
          "name": "",
          "type": "uint256"
        }
      ],
      "stateMutability": "view",
      "type": "function"
    },
    {
      "inputs": [
        {
          "internalType": "address",
          "name": "spender",
          "type": "address"
        },
        {
          "internalType": "uint256",
          "name": "addedValue",
          "type": "uint256"
        }
      ],
      "name": "increaseAllowance",
      "outputs": [
        {
          "internalType": "bool",
          "name": "",
          "type": "bool"
        }
      ],
      "stateMutability": "nonpayable",
      "type": "function"
    },
    {
      "inputs": [
        {
          "internalType": "address",
          "name": "to",
          "type": "address"
        },
        {
          "internalType": "uint256",
          "name": "amount",
          "type": "uint256"
        }
      ],
      "name": "mintTo",
      "outputs": [],
      "stateMutability": "nonpayable",
      "type": "function"
    },
    {
      "inputs": [],
      "name": "minter",
      "outputs": [
        {
          "internalType": "address",
          "name": "",
          "type": "address"
        }
      ],
      "stateMutability": "view",
      "type": "function"
    },
    {
      "inputs": [],
      "name": "name",
      "outputs": [
        {
          "internalType": "string",
          "name": "",
          "type": "string"
        }
      ],
      "stateMutability": "view",
      "type": "function"
    },
    {
      "inputs": [],
      "name": "rune",
      "outputs": [
        {
          "internalType": "uint256",
          "name": "",
          "type": "uint256"
        }
      ],
      "stateMutability": "view",
      "type": "function"
    },
    {
      "inputs": [],
      "name": "runeAmountDivisor",
      "outputs": [
        {
          "internalType": "uint256",
          "name": "",
          "type": "uint256"
        }
      ],
      "stateMutability": "view",
      "type": "function"
    },
    {
      "inputs": [],
      "name": "runeDivisibility",
      "outputs": [
        {
          "internalType": "uint8",
          "name": "",
          "type": "uint8"
        }
      ],
      "stateMutability": "view",
      "type": "function"
    },
    {
      "inputs": [],
      "name": "symbol",
      "outputs": [
        {
          "internalType": "string",
          "name": "",
          "type": "string"
        }
      ],
      "stateMutability": "view",
      "type": "function"
    },
    {
      "inputs": [],
      "name": "totalSupply",
      "outputs": [
        {
          "internalType": "uint256",
          "name": "",
          "type": "uint256"
        }
      ],
      "stateMutability": "view",
      "type": "function"
    },
    {
      "inputs": [
        {
          "internalType": "address",
          "name": "to",
          "type": "address"
        },
        {
          "internalType": "uint256",
          "name": "amount",
          "type": "uint256"
        }
      ],
      "name": "transfer",
      "outputs": [
        {
          "internalType": "bool",
          "name": "",
          "type": "bool"
        }
      ],
      "stateMutability": "nonpayable",
      "type": "function"
    },
    {
      "inputs": [
        {
          "internalType": "address",
          "name": "from",
          "type": "address"
        },
        {
          "internalType": "address",
          "name": "to",
          "type": "address"
        },
        {
          "internalType": "uint256",
          "name": "amount",
          "type": "uint256"
        }
      ],
      "name": "transferFrom",
      "outputs": [
        {
          "internalType": "bool",
          "name": "",
          "type": "bool"
        }
      ],
      "stateMutability": "nonpayable",
      "type": "function"
    }
  ],
  "bytecode": "0x60806040523480156200001157600080fd5b50604051620012a4380380620012a48339810160408190526200003491620001a4565b83836003620000448382620002c0565b506004620000538282620002c0565b5050600580546001600160a01b031916331790555060068290556007805460ff831660ff19909116811790915560121115620000bb576007805461ff001916611200179055620000a5816012620003a2565b620000b290600a620004c1565b600855620000d5565b6007805461ff00191661010060ff84160217905560016008555b50505050620004d9565b634e487b7160e01b600052604160045260246000fd5b600082601f8301126200010757600080fd5b81516001600160401b0380821115620001245762000124620000df565b604051601f8301601f19908116603f011681019082821181831017156200014f576200014f620000df565b816040528381526020925086838588010111156200016c57600080fd5b600091505b8382101562000190578582018301518183018401529082019062000171565b600093810190920192909252949350505050565b60008060008060808587031215620001bb57600080fd5b84516001600160401b0380821115620001d357600080fd5b620001e188838901620000f5565b95506020870151915080821115620001f857600080fd5b506200020787828801620000f5565b93505060408501519150606085015160ff811681146200022657600080fd5b939692955090935050565b600181811c908216806200024657607f821691505b6020821081036200026757634e487b7160e01b600052602260045260246000fd5b50919050565b601f821115620002bb57600081815260208120601f850160051c81016020861015620002965750805b601f850160051c820191505b81811015620002b757828155600101620002a2565b5050505b505050565b81516001600160401b03811115620002dc57620002dc620000df565b620002f481620002ed845462000231565b846200026d565b602080601f8311600181146200032c5760008415620003135750858301515b600019600386901b1c1916600185901b178555620002b7565b600085815260208120601f198616915b828110156200035d578886015182559484019460019091019084016200033c565b50858210156200037c5787850151600019600388901b60f8161c191681555b5050505050600190811b01905550565b634e487b7160e01b600052601160045260246000fd5b60ff8281168282160390811115620003be57620003be6200038c565b92915050565b600181815b8085111562000405578160001904821115620003e957620003e96200038c565b80851615620003f757918102915b93841c9390800290620003c9565b509250929050565b6000826200041e57506001620003be565b816200042d57506000620003be565b8160018114620004465760028114620004515762000471565b6001915050620003be565b60ff8411156200046557620004656200038c565b50506001821b620003be565b5060208310610133831016604e8410600b841016171562000496575081810a620003be565b620004a28383620003c4565b8060001904821115620004b957620004b96200038c565b029392505050565b6000620004d260ff8416836200040d565b9392505050565b610dbb80620004e96000396000f3fe608060405234801561001057600080fd5b50600436106101375760003560e01c8063449a52f8116100b8578063a457c2d71161007c578063a457c2d7146102ae578063a9059cbb146102c1578063c2507ac1146102d4578063d71cac82146102e7578063dd62ed3e146102f0578063f77a0c291461030357600080fd5b8063449a52f8146102395780635643193b1461024c57806370a082311461027457806390cbcce61461029d57806395d89b41146102a657600080fd5b80632c4d4d18116100ff5780632c4d4d18146101cd578063313ce567146101e2578063347c384414610200578063395093511461021357806342966c681461022657600080fd5b806306fdde031461013c578063075461721461015a578063095ea7b31461018557806318160ddd146101a857806323b872dd146101ba575b600080fd5b610144610310565b6040516101519190610b3e565b60405180910390f35b60055461016d906001600160a01b031681565b6040516001600160a01b039091168152602001610151565b610198610193366004610ba8565b6103a2565b6040519015158152602001610151565b6002545b604051908152602001610151565b6101986101c8366004610bd2565b6103bc565b6101e06101db366004610c0e565b6103e0565b005b600754610100900460ff165b60405160ff9091168152602001610151565b6101ac61020e366004610c30565b61045f565b610198610221366004610ba8565b61046f565b6101e0610234366004610c30565b610491565b6101e0610247366004610ba8565b6104d3565b61025f61025a366004610c30565b61054e565b60408051928352602083019190915201610151565b6101ac610282366004610c0e565b6001600160a01b031660009081526020819052604090205490565b6101ac60085481565b610144610575565b6101986102bc366004610ba8565b610584565b6101986102cf366004610ba8565b6105ff565b6101ac6102e2366004610c30565b61060d565b6101ac60065481565b6101ac6102fe366004610c49565b61061d565b6007546101ee9060ff1681565b60606003805461031f90610c7c565b80601f016020809104026020016040519081016040528092919081815260200182805461034b90610c7c565b80156103985780601f1061036d57610100808354040283529160200191610398565b820191906000526020600020905b81548152906001019060200180831161037b57829003601f168201915b5050505050905090565b6000336103b0818585610648565b60019150505b92915050565b6000336103ca85828561076d565b6103d58585856107e7565b506001949350505050565b6005546001600160a01b031633146104135760405162461bcd60e51b815260040161040a90610cb6565b60405180910390fd5b600580546001600160a01b0319166001600160a01b03831690811790915560405133907f3b0007eb941cf645526cbb3a4fdaecda9d28ce4843167d9263b536a1f1edc0f690600090a350565b6000600854826103b69190610d13565b6000336103b0818585610482838361061d565b61048c9190610d27565b610648565b61049b3382610979565b60405181815233907fcc16f5dbb4873280815c1ee09dbd06736cffcc184412cf7a71a0fdb75d397ca59060200160405180910390a250565b6005546001600160a01b031633146104fd5760405162461bcd60e51b815260040161040a90610cb6565b6105078282610a91565b816001600160a01b03167f0f6798a560793a54c3bcfe86a93cde1e73087d944c0ea20544137d41213968858260405161054291815260200190565b60405180910390a25050565b6000806008548361055f9190610d13565b60085461056c9085610d3a565b91509150915091565b60606004805461031f90610c7c565b60003381610592828661061d565b9050838110156105f25760405162461bcd60e51b815260206004820152602560248201527f45524332303a2064656372656173656420616c6c6f77616e63652062656c6f77604482015264207a65726f60d81b606482015260840161040a565b6103d58286868403610648565b6000336103b08185856107e7565b6000600854826103b69190610d4e565b6001600160a01b03918216600090815260016020908152604080832093909416825291909152205490565b6001600160a01b0383166106aa5760405162461bcd60e51b8152602060048201526024808201527f45524332303a20617070726f76652066726f6d20746865207a65726f206164646044820152637265737360e01b606482015260840161040a565b6001600160a01b03821661070b5760405162461bcd60e51b815260206004820152602260248201527f45524332303a20617070726f766520746f20746865207a65726f206164647265604482015261737360f01b606482015260840161040a565b6001600160a01b0383811660008181526001602090815260408083209487168084529482529182902085905590518481527f8c5be1e5ebec7d5bd14f71427d1e84f3dd0314c0f7b2291e5b200ac8c7c3b92591015b60405180910390a3505050565b6000610779848461061d565b905060001981146107e157818110156107d45760405162461bcd60e51b815260206004820152601d60248201527f45524332303a20696e73756666696369656e7420616c6c6f77616e6365000000604482015260640161040a565b6107e18484848403610648565b50505050565b6001600160a01b03831661084b5760405162461bcd60e51b815260206004820152602560248201527f45524332303a207472616e736665722066726f6d20746865207a65726f206164604482015264647265737360d81b606482015260840161040a565b6001600160a01b0382166108ad5760405162461bcd60e51b815260206004820152602360248201527f45524332303a207472616e7366657220746f20746865207a65726f206164647260448201526265737360e81b606482015260840161040a565b6001600160a01b038316600090815260208190526040902054818110156109255760405162461bcd60e51b815260206004820152602660248201527f45524332303a207472616e7366657220616d6f756e7420657863656564732062604482015265616c616e636560d01b606482015260840161040a565b6001600160a01b0384811660008181526020818152604080832087870390559387168083529184902080548701905592518581529092600080516020610d66833981519152910160405180910390a36107e1565b6001600160a01b0382166109d95760405162461bcd60e51b815260206004820152602160248201527f45524332303a206275726e2066726f6d20746865207a65726f206164647265736044820152607360f81b606482015260840161040a565b6001600160a01b03821660009081526020819052604090205481811015610a4d5760405162461bcd60e51b815260206004820152602260248201527f45524332303a206275726e20616d6f756e7420657863656564732062616c616e604482015261636560f01b606482015260840161040a565b6001600160a01b038316600081815260208181526040808320868603905560028054879003905551858152919291600080516020610d668339815191529101610760565b6001600160a01b038216610ae75760405162461bcd60e51b815260206004820152601f60248201527f45524332303a206d696e7420746f20746865207a65726f206164647265737300604482015260640161040a565b8060026000828254610af99190610d27565b90915550506001600160a01b03821660008181526020818152604080832080548601905551848152600080516020610d66833981519152910160405180910390a35050565b600060208083528351808285015260005b81811015610b6b57858101830151858201604001528201610b4f565b506000604082860101526040601f19601f8301168501019250505092915050565b80356001600160a01b0381168114610ba357600080fd5b919050565b60008060408385031215610bbb57600080fd5b610bc483610b8c565b946020939093013593505050565b600080600060608486031215610be757600080fd5b610bf084610b8c565b9250610bfe60208501610b8c565b9150604084013590509250925092565b600060208284031215610c2057600080fd5b610c2982610b8c565b9392505050565b600060208284031215610c4257600080fd5b5035919050565b60008060408385031215610c5c57600080fd5b610c6583610b8c565b9150610c7360208401610b8c565b90509250929050565b600181811c90821680610c9057607f821691505b602082108103610cb057634e487b7160e01b600052602260045260246000fd5b50919050565b60208082526017908201527637b7363c9031b0b63630b1363290313c9036b4b73a32b960491b604082015260600190565b634e487b7160e01b600052601260045260246000fd5b634e487b7160e01b600052601160045260246000fd5b600082610d2257610d22610ce7565b500490565b808201808211156103b6576103b6610cfd565b600082610d4957610d49610ce7565b500690565b80820281158282048414176103b6576103b6610cfd56feddf252ad1be2c89b69c2b068fc378daa952ba7f163c4a11628f55a4df523b3efa2646970667358221220a4fddc6a24c1d5bec88145f9fcb79dabd8e748b1c2c077c15fe1004f414d652364736f6c63430008130033",
  "linkReferences": {},
  "deployedLinkReferences": {}
}