{
  "address": "0xb0e08B7e4498ecA6868781aC3B5086fF4F66be56",
  "abi": [
    {
      "anonymous": false,
      "inputs": [
        {
          "indexed": true,
          "internalType": "address",
          "name": "_oldImplementation",
          "type": "address"
        },
        {
          "indexed": true,
          "internalType": "address",
          "name": "_newImplementation",
          "type": "address"
        }
      ],
      "name": "ImplementationChanged",
      "type": "event"
    },
    {
      "anonymous": false,
      "inputs": [
        {
          "indexed": true,
          "internalType": "address",
          "name": "_oldOwner",
          "type": "address"
        },
        {
          "indexed": true,
          "internalType": "address",
          "name": "_newOwner",
          "type": "address"
        }
      ],
      "name": "OwnershipTransferred",
      "type": "event"
    },
    {
      "payable": true,
      "stateMutability": "payable",
      "type": "fallback"
    },
    {
      "constant": true,
      "inputs": [],
      "name": "BASE_RATE",
      "outputs": [
        {
          "internalType": "uint256",
          "name": "",
          "type": "uint256"
        }
      ],
      "payable": false,
      "stateMutability": "view",
      "type": "function"
    },
    {
      "constant": true,
      "inputs": [],
      "name": "DIVISOR",
      "outputs": [
        {
          "internalType": "uint256",
          "name": "",
          "type": "uint256"
        }
      ],
      "payable": false,
      "stateMutability": "view",
      "type": "function"
    },
    {
      "constant": true,
      "inputs": [],
      "name": "TWO_WEEKS",
      "outputs": [
        {
          "internalType": "uint256",
          "name": "",
          "type": "uint256"
        }
      ],
      "payable": false,
      "stateMutability": "view",
      "type": "function"
    },
    {
      "constant": true,
      "inputs": [],
      "name": "getAverageBlockTime",
      "outputs": [
        {
          "internalType": "uint256",
          "name": "",
          "type": "uint256"
        }
      ],
      "payable": false,
      "stateMutability": "view",
      "type": "function"
    },
    {
      "constant": true,
      "inputs": [
        {
          "internalType": "uint256",
          "name": "_checkpointTimestamp",
          "type": "uint256"
        }
      ],
      "name": "getCheckpointBlockNumber",
      "outputs": [
        {
          "internalType": "uint256",
          "name": "",
          "type": "uint256"
        }
      ],
      "payable": false,
      "stateMutability": "view",
      "type": "function"
    },
    {
      "constant": true,
      "inputs": [
        {
          "internalType": "address",
          "name": "_staker",
          "type": "address"
        }
      ],
      "name": "getClaimedBalances",
      "outputs": [
        {
          "internalType": "uint256",
          "name": "",
          "type": "uint256"
        }
      ],
      "payable": false,
      "stateMutability": "view",
      "type": "function"
    },
    {
      "constant": true,
      "inputs": [],
      "name": "getDeploymentBlock",
      "outputs": [
        {
          "internalType": "uint256",
          "name": "",
          "type": "uint256"
        }
      ],
      "payable": false,
      "stateMutability": "view",
      "type": "function"
    },
    {
      "constant": true,
      "inputs": [],
      "name": "getImplementation",
      "outputs": [
        {
          "internalType": "address",
          "name": "_implementation",
          "type": "address"
        }
      ],
      "payable": false,
      "stateMutability": "view",
      "type": "function"
    },
    {
      "constant": true,
      "inputs": [],
      "name": "getMaxDuration",
      "outputs": [
        {
          "internalType": "uint256",
          "name": "",
          "type": "uint256"
        }
      ],
      "payable": false,
      "stateMutability": "view",
      "type": "function"
    },
    {
      "constant": true,
      "inputs": [],
      "name": "getOsSOV",
      "outputs": [
        {
          "internalType": "contract IERC20Mintable",
          "name": "",
          "type": "address"
        }
      ],
      "payable": false,
      "stateMutability": "view",
      "type": "function"
    },
    {
      "constant": true,
      "inputs": [],
      "name": "getProxyOwner",
      "outputs": [
        {
          "internalType": "address",
          "name": "_owner",
          "type": "address"
        }
      ],
      "payable": false,
      "stateMutability": "view",
      "type": "function"
    },
    {
      "constant": true,
      "inputs": [],
      "name": "getRewardsProgramStartTime",
      "outputs": [
        {
          "internalType": "uint256",
          "name": "",
          "type": "uint256"
        }
      ],
      "payable": false,
      "stateMutability": "view",
      "type": "function"
    },
    {
      "constant": true,
      "inputs": [
        {
          "internalType": "address",
          "name": "_staker",
          "type": "address"
        }
      ],
      "name": "getStakerNextWithdrawTimestamp",
      "outputs": [
        {
          "internalType": "uint256",
          "name": "",
          "type": "uint256"
        }
      ],
      "payable": false,
      "stateMutability": "view",
      "type": "function"
    },
    {
      "constant": true,
      "inputs": [],
      "name": "getStaking",
      "outputs": [
        {
          "internalType": "contract IStaking",
          "name": "",
          "type": "address"
        }
      ],
      "payable": false,
      "stateMutability": "view",
      "type": "function"
    },
    {
      "constant": true,
      "inputs": [],
      "name": "getStopBlock",
      "outputs": [
        {
          "internalType": "uint256",
          "name": "",
          "type": "uint256"
        }
      ],
      "payable": false,
      "stateMutability": "view",
      "type": "function"
    },
    {
      "constant": true,
      "inputs": [],
      "name": "getStopRewardsTimestamp",
      "outputs": [
        {
          "internalType": "uint256",
          "name": "",
          "type": "uint256"
        }
      ],
      "payable": false,
      "stateMutability": "view",
      "type": "function"
    },
    {
      "constant": true,
      "inputs": [],
      "name": "isOwner",
      "outputs": [
        {
          "internalType": "bool",
          "name": "",
          "type": "bool"
        }
      ],
      "payable": false,
      "stateMutability": "view",
      "type": "function"
    },
    {
      "constant": true,
      "inputs": [],
      "name": "owner",
      "outputs": [
        {
          "internalType": "address",
          "name": "",
          "type": "address"
        }
      ],
      "payable": false,
      "stateMutability": "view",
      "type": "function"
    },
    {
      "constant": false,
      "inputs": [
        {
          "internalType": "address",
          "name": "_implementation",
          "type": "address"
        }
      ],
      "name": "setImplementation",
      "outputs": [],
      "payable": false,
      "stateMutability": "nonpayable",
      "type": "function"
    },
    {
      "constant": false,
      "inputs": [
        {
          "internalType": "address",
          "name": "_owner",
          "type": "address"
        }
      ],
      "name": "setProxyOwner",
      "outputs": [],
      "payable": false,
      "stateMutability": "nonpayable",
      "type": "function"
    },
    {
      "constant": false,
      "inputs": [
        {
          "internalType": "address",
          "name": "newOwner",
          "type": "address"
        }
      ],
      "name": "transferOwnership",
      "outputs": [],
      "payable": false,
      "stateMutability": "nonpayable",
      "type": "function"
    }
  ],
  "transactionHash": "0x16a0ef92c509760a9411eee5cd3589c5243662384a5875a9f116cebac6124125",
  "args": [],
  "numDeployments": 1,
  "solcInputHash": "2b55981d61b123228d505cb19429ee59",
  "bytecode": "0x608060405260006100176001600160e01b0361006616565b600080546001600160a01b0319166001600160a01b038316908117825560405192935091600080516020610ac0833981519152908290a350610061336001600160e01b0361006a16565b61013c565b3390565b6001600160a01b0381166100af5760405162461bcd60e51b8152600401808060200182810382526025815260200180610ae06025913960400191505060405180910390fd5b6001600160a01b0381166100ca6001600160e01b0361011416565b6001600160a01b0316600080516020610ac083398151915260405160405180910390a3604080516e35b2bc97383937bc3c9737bbb732b960891b8152905190819003600f01902055565b604080516e35b2bc97383937bc3c9737bbb732b960891b8152905190819003600f0190205490565b6109758061014b6000396000f3fe60806040526004361061012a5760003560e01c8063934d1fa4116100ab578063d784d4261161006f578063d784d42614610370578063f2fde38b146103a3578063f5f52e2e146103d6578063f92ac1f1146103eb578063f9e28d0d1461041e578063fed73f66146104335761012a565b8063934d1fa4146102e7578063aaf10f42146102fc578063b49a2db914610311578063caaee91c14610326578063ce6da7f21461035b5761012a565b80637b1391a6116100f25780637b1391a61461026a57806380d1cb351461027f5780638da5cb5b146102945780638f32d59b146102a95780638fd35c65146102d25761012a565b80630ef9c83c146101a05780631ab7710d146101e55780633410fe6e1461021657806341910f901461022b578063722a23db14610240575b6000610134610448565b90506001600160a01b03811661017b5760405162461bcd60e51b81526004018080602001828103825260238152602001806108f96023913960400191505060405180910390fd5b60405136600082376000803683855af43d806000843e81801561019c578184f35b8184fd5b3480156101ac57600080fd5b506101d3600480360360208110156101c357600080fd5b50356001600160a01b0316610473565b60408051918252519081900360200190f35b3480156101f157600080fd5b506101fa61048e565b604080516001600160a01b039092168252519081900360200190f35b34801561022257600080fd5b506101d36104b6565b34801561023757600080fd5b506101d36104bd565b34801561024c57600080fd5b506101d36004803603602081101561026357600080fd5b50356104c3565b34801561027657600080fd5b506101fa6104d5565b34801561028b57600080fd5b506101d36104e4565b3480156102a057600080fd5b506101fa6104ea565b3480156102b557600080fd5b506102be6104f9565b604080519115158252519081900360200190f35b3480156102de57600080fd5b506101fa61051d565b3480156102f357600080fd5b506101d361052c565b34801561030857600080fd5b506101fa610448565b34801561031d57600080fd5b506101d3610533565b34801561033257600080fd5b506103596004803603602081101561034957600080fd5b50356001600160a01b0316610539565b005b34801561036757600080fd5b506101d36105aa565b34801561037c57600080fd5b506103596004803603602081101561039357600080fd5b50356001600160a01b03166105b0565b3480156103af57600080fd5b50610359600480360360208110156103c657600080fd5b50356001600160a01b031661061e565b3480156103e257600080fd5b506101d361066f565b3480156103f757600080fd5b506101d36004803603602081101561040e57600080fd5b50356001600160a01b0316610675565b34801561042a57600080fd5b506101d3610690565b34801561043f57600080fd5b506101d3610696565b604080517135b2bc9734b6b83632b6b2b73a30ba34b7b760711b815290519081900360120190205490565b6001600160a01b031660009081526008602052604090205490565b604080516e35b2bc97383937bc3c9737bbb732b960891b8152905190819003600f0190205490565b6227ac4081565b61038481565b6000908152600a602052604090205490565b6002546001600160a01b031690565b60095490565b6000546001600160a01b031690565b600080546001600160a01b031661050e61069c565b6001600160a01b031614905090565b6001546001600160a01b031690565b6212750081565b60035490565b61054161048e565b6001600160a01b0316336001600160a01b03161461059e576040805162461bcd60e51b8152602060048201526015602482015274141c9bde1e4e8e881858d8d95cdcc819195b9a5959605a1b604482015290519081900360640190fd5b6105a7816106a0565b50565b60065490565b6105b861048e565b6001600160a01b0316336001600160a01b031614610615576040805162461bcd60e51b8152602060048201526015602482015274141c9bde1e4e8e881858d8d95cdcc819195b9a5959605a1b604482015290519081900360640190fd5b6105a781610753565b6106266104f9565b610666576040805162461bcd60e51b815260206004820152600c60248201526b1d5b985d5d1a1bdc9a5e995960a21b604482015290519081900360640190fd5b6105a781610809565b60055490565b6001600160a01b031660009081526007602052604090205490565b600b5490565b60045490565b3390565b6001600160a01b0381166106e55760405162461bcd60e51b815260040180806020018281038252602581526020018061091c6025913960400191505060405180910390fd5b806001600160a01b03166106f761048e565b6001600160a01b03167f8be0079c531659141344cd1fd0a4f28419497f9722a3daafe3b4186f6b6457e060405160405180910390a3604080516e35b2bc97383937bc3c9737bbb732b960891b8152905190819003600f01902055565b6001600160a01b0381166107985760405162461bcd60e51b81526004018080602001828103825260298152602001806108d06029913960400191505060405180910390fd5b806001600160a01b03166107aa610448565b6001600160a01b03167fcfbf4028add9318bbf716f08c348595afb063b0e9feed1f86d33681a4b3ed4d360405160405180910390a3604080517135b2bc9734b6b83632b6b2b73a30ba34b7b760711b8152905190819003601201902055565b6001600160a01b03811661084e5760405162461bcd60e51b81526004018080602001828103825260268152602001806108aa6026913960400191505060405180910390fd5b600080546040516001600160a01b03808516939216917f8be0079c531659141344cd1fd0a4f28419497f9722a3daafe3b4186f6b6457e091a3600080546001600160a01b0319166001600160a01b039290921691909117905556fe4f776e61626c653a206e6577206f776e657220697320746865207a65726f206164647265737350726f78793a3a736574496d706c656d656e746174696f6e3a20696e76616c6964206164647265737350726f78793a3a28293a20696d706c656d656e746174696f6e206e6f7420666f756e6450726f78793a3a73657450726f78794f776e65723a20696e76616c69642061646472657373a265627a7a72315820030e07e1442550cd8d23901edeee16371191d8a1e6943db736ba95128262704064736f6c634300051100328be0079c531659141344cd1fd0a4f28419497f9722a3daafe3b4186f6b6457e050726f78793a3a73657450726f78794f776e65723a20696e76616c69642061646472657373",
  "devdoc": {
    "details": "StakingRewardsOs contract should be upgradable. Used UpgradableProxy. StakingRewardsOsStorage is deployed with the upgradable functionality by using this contract instead, that inherits from UpgradableProxy with the possibility of being enhanced and re-deployed.",
    "methods": {
      "getCheckpointBlockNumber(uint256)": {
        "params": {
          "_checkpointTimestamp": "Checkpoint timestamp"
        }
      },
      "getImplementation()": {
        "return": "Address of the implementation."
      },
      "getProxyOwner()": {
        "return": "Address of the owner."
      },
      "isOwner()": {
        "details": "Returns true if the caller is the current owner."
      },
      "owner()": {
        "details": "Returns the address of the current owner."
      },
      "setImplementation(address)": {
        "details": "Wrapper for _setImplementation that exposes the function as public for owner to be able to set a new version of the contract as current pointing implementation.",
        "params": {
          "_implementation": "Address of the implementation."
        }
      },
      "setProxyOwner(address)": {
        "params": {
          "_owner": "Address of the owner."
        }
      },
      "transferOwnership(address)": {
        "details": "Transfers ownership of the contract to a new account (`newOwner`). Can only be called by the current owner."
      }
    },
    "title": "StakingRewardsOs Proxy contract."
  },
  "userdoc": {
    "methods": {
      "getCheckpointBlockNumber(uint256)": {
        "notice": "GETTERS"
      },
      "getImplementation()": {
        "notice": "Return address of the implementation."
      },
      "getProxyOwner()": {
        "notice": "Return address of the owner."
      },
      "setImplementation(address)": {
        "notice": "Set address of the implementation."
      },
      "setProxyOwner(address)": {
        "notice": "Set address of the owner."
      }
    }
  },
  "storageLayout": {
    "storage": [
      {
        "astId": 55500,
        "contract": "contracts/governance/StakingRewards/StakingRewardsOsProxy.sol:StakingRewardsOsProxy",
        "label": "_owner",
        "offset": 0,
        "slot": "0",
        "type": "t_address"
      },
      {
        "astId": 25052,
        "contract": "contracts/governance/StakingRewards/StakingRewardsOsProxy.sol:StakingRewardsOsProxy",
        "label": "osSOV",
        "offset": 0,
        "slot": "1",
        "type": "t_contract(IERC20Mintable)34143"
      },
      {
        "astId": 25054,
        "contract": "contracts/governance/StakingRewards/StakingRewardsOsProxy.sol:StakingRewardsOsProxy",
        "label": "staking",
        "offset": 0,
        "slot": "2",
        "type": "t_contract(IStaking)17840"
      },
      {
        "astId": 25056,
        "contract": "contracts/governance/StakingRewards/StakingRewardsOsProxy.sol:StakingRewardsOsProxy",
        "label": "maxDuration",
        "offset": 0,
        "slot": "3",
        "type": "t_uint256"
      },
      {
        "astId": 25058,
        "contract": "contracts/governance/StakingRewards/StakingRewardsOsProxy.sol:StakingRewardsOsProxy",
        "label": "rewardsProgramStartTime",
        "offset": 0,
        "slot": "4",
        "type": "t_uint256"
      },
      {
        "astId": 25060,
        "contract": "contracts/governance/StakingRewards/StakingRewardsOsProxy.sol:StakingRewardsOsProxy",
        "label": "stopBlock",
        "offset": 0,
        "slot": "5",
        "type": "t_uint256"
      },
      {
        "astId": 25062,
        "contract": "contracts/governance/StakingRewards/StakingRewardsOsProxy.sol:StakingRewardsOsProxy",
        "label": "stopRewardsTimestamp",
        "offset": 0,
        "slot": "6",
        "type": "t_uint256"
      },
      {
        "astId": 25066,
        "contract": "contracts/governance/StakingRewards/StakingRewardsOsProxy.sol:StakingRewardsOsProxy",
        "label": "stakerNextWithdrawTimestamp",
        "offset": 0,
        "slot": "7",
        "type": "t_mapping(t_address,t_uint256)"
      },
      {
        "astId": 25070,
        "contract": "contracts/governance/StakingRewards/StakingRewardsOsProxy.sol:StakingRewardsOsProxy",
        "label": "claimedBalances",
        "offset": 0,
        "slot": "8",
        "type": "t_mapping(t_address,t_uint256)"
      },
      {
        "astId": 25072,
        "contract": "contracts/governance/StakingRewards/StakingRewardsOsProxy.sol:StakingRewardsOsProxy",
        "label": "deploymentBlock",
        "offset": 0,
        "slot": "9",
        "type": "t_uint256"
      },
      {
        "astId": 25076,
        "contract": "contracts/governance/StakingRewards/StakingRewardsOsProxy.sol:StakingRewardsOsProxy",
        "label": "checkpointBlockNumber",
        "offset": 0,
        "slot": "10",
        "type": "t_mapping(t_uint256,t_uint256)"
      },
      {
        "astId": 25078,
        "contract": "contracts/governance/StakingRewards/StakingRewardsOsProxy.sol:StakingRewardsOsProxy",
        "label": "averageBlockTime",
        "offset": 0,
        "slot": "11",
        "type": "t_uint256"
      }
    ],
    "types": {
      "t_address": {
        "encoding": "inplace",
        "label": "address",
        "numberOfBytes": "20"
      },
      "t_contract(IERC20Mintable)34143": {
        "encoding": "inplace",
        "label": "contract IERC20Mintable",
        "numberOfBytes": "20"
      },
      "t_contract(IStaking)17840": {
        "encoding": "inplace",
        "label": "contract IStaking",
        "numberOfBytes": "20"
      },
      "t_mapping(t_address,t_uint256)": {
        "encoding": "mapping",
        "key": "t_address",
        "label": "mapping(address => uint256)",
        "numberOfBytes": "32",
        "value": "t_uint256"
      },
      "t_mapping(t_uint256,t_uint256)": {
        "encoding": "mapping",
        "key": "t_uint256",
        "label": "mapping(uint256 => uint256)",
        "numberOfBytes": "32",
        "value": "t_uint256"
      },
      "t_uint256": {
        "encoding": "inplace",
        "label": "uint256",
        "numberOfBytes": "32"
      }
    }
  }
}